{
  "_format": "hh-sol-artifact-1",
  "contractName": "Diasosi",
  "sourceName": "src/contracts/Diasosi.sol",
  "abi": [
    {
      "inputs": [
        {
          "internalType": "string",
          "name": "_name",
          "type": "string"
        },
        {
          "internalType": "string",
          "name": "_symbol",
          "type": "string"
        }
      ],
      "stateMutability": "nonpayable",
      "type": "constructor"
    },
    {
      "anonymous": false,
      "inputs": [
        {
          "indexed": true,
          "internalType": "address",
          "name": "owner",
          "type": "address"
        },
        {
          "indexed": true,
          "internalType": "address",
          "name": "approved",
          "type": "address"
        },
        {
          "indexed": true,
          "internalType": "uint256",
          "name": "tokenId",
          "type": "uint256"
        }
      ],
      "name": "Approval",
      "type": "event"
    },
    {
      "anonymous": false,
      "inputs": [
        {
          "indexed": true,
          "internalType": "address",
          "name": "owner",
          "type": "address"
        },
        {
          "indexed": true,
          "internalType": "address",
          "name": "operator",
          "type": "address"
        },
        {
          "indexed": false,
          "internalType": "bool",
          "name": "approved",
          "type": "bool"
        }
      ],
      "name": "ApprovalForAll",
      "type": "event"
    },
    {
      "anonymous": false,
      "inputs": [
        {
          "indexed": true,
          "internalType": "address",
          "name": "previousOwner",
          "type": "address"
        },
        {
          "indexed": true,
          "internalType": "address",
          "name": "newOwner",
          "type": "address"
        }
      ],
      "name": "OwnershipTransferred",
      "type": "event"
    },
    {
      "anonymous": false,
      "inputs": [
        {
          "indexed": false,
          "internalType": "address",
          "name": "account",
          "type": "address"
        }
      ],
      "name": "Paused",
      "type": "event"
    },
    {
      "anonymous": false,
      "inputs": [
        {
          "indexed": true,
          "internalType": "address",
          "name": "from",
          "type": "address"
        },
        {
          "indexed": true,
          "internalType": "address",
          "name": "to",
          "type": "address"
        },
        {
          "indexed": true,
          "internalType": "uint256",
          "name": "tokenId",
          "type": "uint256"
        }
      ],
      "name": "Transfer",
      "type": "event"
    },
    {
      "anonymous": false,
      "inputs": [
        {
          "indexed": false,
          "internalType": "address",
          "name": "account",
          "type": "address"
        }
      ],
      "name": "Unpaused",
      "type": "event"
    },
    {
      "anonymous": false,
      "inputs": [
        {
          "indexed": false,
          "internalType": "uint256",
          "name": "id",
          "type": "uint256"
        },
        {
          "indexed": true,
          "internalType": "address",
          "name": "owner",
          "type": "address"
        },
        {
          "indexed": true,
          "internalType": "string",
          "name": "tokenURI",
          "type": "string"
        },
        {
          "indexed": false,
          "internalType": "uint256",
          "name": "timestamp",
          "type": "uint256"
        }
      ],
      "name": "onMint",
      "type": "event"
    },
    {
      "inputs": [
        {
          "internalType": "uint256",
          "name": "",
          "type": "uint256"
        }
      ],
      "name": "Minted",
      "outputs": [
        {
          "internalType": "string",
          "name": "title",
          "type": "string"
        },
        {
          "internalType": "uint256",
          "name": "id",
          "type": "uint256"
        },
        {
          "internalType": "address",
          "name": "owner",
          "type": "address"
        },
        {
          "internalType": "string",
          "name": "imageURL",
          "type": "string"
        },
        {
          "internalType": "uint256",
          "name": "timestamp",
          "type": "uint256"
        }
      ],
      "stateMutability": "view",
      "type": "function"
    },
    {
      "inputs": [
        {
          "internalType": "address",
          "name": "to",
          "type": "address"
        },
        {
          "internalType": "uint256",
          "name": "tokenId",
          "type": "uint256"
        }
      ],
      "name": "approve",
      "outputs": [],
      "stateMutability": "nonpayable",
      "type": "function"
    },
    {
      "inputs": [
        {
          "internalType": "address",
          "name": "owner",
          "type": "address"
        }
      ],
      "name": "balanceOf",
      "outputs": [
        {
          "internalType": "uint256",
          "name": "",
          "type": "uint256"
        }
      ],
      "stateMutability": "view",
      "type": "function"
    },
    {
      "inputs": [],
      "name": "baseExtension",
      "outputs": [
        {
          "internalType": "string",
          "name": "",
          "type": "string"
        }
      ],
      "stateMutability": "view",
      "type": "function"
    },
    {
      "inputs": [],
      "name": "baseImage",
      "outputs": [
        {
          "internalType": "string",
          "name": "",
          "type": "string"
        }
      ],
      "stateMutability": "view",
      "type": "function"
    },
    {
      "inputs": [
        {
          "internalType": "string",
          "name": "_imageURL",
          "type": "string"
        },
        {
          "internalType": "string",
          "name": "_title",
          "type": "string"
        }
      ],
      "name": "clickMint",
      "outputs": [],
      "stateMutability": "nonpayable",
      "type": "function"
    },
    {
      "inputs": [],
      "name": "getAllNFTs",
      "outputs": [
        {
          "components": [
            {
              "internalType": "string",
              "name": "title",
              "type": "string"
            },
            {
              "internalType": "uint256",
              "name": "id",
              "type": "uint256"
            },
            {
              "internalType": "address",
              "name": "owner",
              "type": "address"
            },
            {
              "internalType": "string",
              "name": "imageURL",
              "type": "string"
            },
            {
              "internalType": "uint256",
              "name": "timestamp",
              "type": "uint256"
            }
          ],
          "internalType": "struct Diasosi.mintSale[]",
          "name": "",
          "type": "tuple[]"
        }
      ],
      "stateMutability": "view",
      "type": "function"
    },
    {
      "inputs": [
        {
          "internalType": "uint256",
          "name": "tokenId",
          "type": "uint256"
        }
      ],
      "name": "getApproved",
      "outputs": [
        {
          "internalType": "address",
          "name": "",
          "type": "address"
        }
      ],
      "stateMutability": "view",
      "type": "function"
    },
    {
      "inputs": [],
      "name": "getNFTs",
      "outputs": [
        {
          "components": [
            {
              "internalType": "string",
              "name": "title",
              "type": "string"
            },
            {
              "internalType": "uint256",
              "name": "id",
              "type": "uint256"
            },
            {
              "internalType": "address",
              "name": "owner",
              "type": "address"
            },
            {
              "internalType": "string",
              "name": "imageURL",
              "type": "string"
            },
            {
              "internalType": "uint256",
              "name": "timestamp",
              "type": "uint256"
            }
          ],
          "internalType": "struct Diasosi.mintSale[]",
          "name": "",
          "type": "tuple[]"
        }
      ],
      "stateMutability": "view",
      "type": "function"
    },
    {
      "inputs": [
        {
          "internalType": "address",
          "name": "owner",
          "type": "address"
        },
        {
          "internalType": "address",
          "name": "operator",
          "type": "address"
        }
      ],
      "name": "isApprovedForAll",
      "outputs": [
        {
          "internalType": "bool",
          "name": "",
          "type": "bool"
        }
      ],
      "stateMutability": "view",
      "type": "function"
    },
    {
      "inputs": [
        {
          "internalType": "uint256",
          "name": "",
          "type": "uint256"
        }
      ],
      "name": "mintedNFT",
      "outputs": [
        {
          "internalType": "string",
          "name": "title",
          "type": "string"
        },
        {
          "internalType": "uint256",
          "name": "id",
          "type": "uint256"
        },
        {
          "internalType": "address",
          "name": "owner",
          "type": "address"
        },
        {
          "internalType": "string",
          "name": "imageURL",
          "type": "string"
        },
        {
          "internalType": "uint256",
          "name": "timestamp",
          "type": "uint256"
        }
      ],
      "stateMutability": "view",
      "type": "function"
    },
    {
      "inputs": [],
      "name": "name",
      "outputs": [
        {
          "internalType": "string",
          "name": "",
          "type": "string"
        }
      ],
      "stateMutability": "view",
      "type": "function"
    },
    {
      "inputs": [],
      "name": "owner",
      "outputs": [
        {
          "internalType": "address",
          "name": "",
          "type": "address"
        }
      ],
      "stateMutability": "view",
      "type": "function"
    },
    {
      "inputs": [
        {
          "internalType": "uint256",
          "name": "tokenId",
          "type": "uint256"
        }
      ],
      "name": "ownerOf",
      "outputs": [
        {
          "internalType": "address",
          "name": "",
          "type": "address"
        }
      ],
      "stateMutability": "view",
      "type": "function"
    },
    {
      "inputs": [],
      "name": "pause",
      "outputs": [],
      "stateMutability": "nonpayable",
      "type": "function"
    },
    {
      "inputs": [],
      "name": "paused",
      "outputs": [
        {
          "internalType": "bool",
          "name": "",
          "type": "bool"
        }
      ],
      "stateMutability": "view",
      "type": "function"
    },
    {
      "inputs": [],
      "name": "renounceOwnership",
      "outputs": [],
      "stateMutability": "nonpayable",
      "type": "function"
    },
    {
      "inputs": [
        {
          "internalType": "address",
          "name": "from",
          "type": "address"
        },
        {
          "internalType": "address",
          "name": "to",
          "type": "address"
        },
        {
          "internalType": "uint256",
          "name": "tokenId",
          "type": "uint256"
        }
      ],
      "name": "safeTransferFrom",
      "outputs": [],
      "stateMutability": "nonpayable",
      "type": "function"
    },
    {
      "inputs": [
        {
          "internalType": "address",
          "name": "from",
          "type": "address"
        },
        {
          "internalType": "address",
          "name": "to",
          "type": "address"
        },
        {
          "internalType": "uint256",
          "name": "tokenId",
          "type": "uint256"
        },
        {
          "internalType": "bytes",
          "name": "data",
          "type": "bytes"
        }
      ],
      "name": "safeTransferFrom",
      "outputs": [],
      "stateMutability": "nonpayable",
      "type": "function"
    },
    {
      "inputs": [
        {
          "internalType": "address",
          "name": "operator",
          "type": "address"
        },
        {
          "internalType": "bool",
          "name": "approved",
          "type": "bool"
        }
      ],
      "name": "setApprovalForAll",
      "outputs": [],
      "stateMutability": "nonpayable",
      "type": "function"
    },
    {
      "inputs": [
        {
          "internalType": "bytes4",
          "name": "interfaceId",
          "type": "bytes4"
        }
      ],
      "name": "supportsInterface",
      "outputs": [
        {
          "internalType": "bool",
          "name": "",
          "type": "bool"
        }
      ],
      "stateMutability": "view",
      "type": "function"
    },
    {
      "inputs": [],
      "name": "symbol",
      "outputs": [
        {
          "internalType": "string",
          "name": "",
          "type": "string"
        }
      ],
      "stateMutability": "view",
      "type": "function"
    },
    {
      "inputs": [
        {
          "internalType": "uint256",
          "name": "tokenId",
          "type": "uint256"
        }
      ],
      "name": "tokenURI",
      "outputs": [
        {
          "internalType": "string",
          "name": "",
          "type": "string"
        }
      ],
      "stateMutability": "view",
      "type": "function"
    },
    {
      "inputs": [
        {
          "internalType": "address",
          "name": "from",
          "type": "address"
        },
        {
          "internalType": "address",
          "name": "to",
          "type": "address"
        },
        {
          "internalType": "uint256",
          "name": "tokenId",
          "type": "uint256"
        }
      ],
      "name": "transferFrom",
      "outputs": [],
      "stateMutability": "nonpayable",
      "type": "function"
    },
    {
      "inputs": [
        {
          "internalType": "address",
          "name": "newOwner",
          "type": "address"
        }
      ],
      "name": "transferOwnership",
      "outputs": [],
      "stateMutability": "nonpayable",
      "type": "function"
    },
    {
      "inputs": [],
      "name": "unpause",
      "outputs": [],
      "stateMutability": "nonpayable",
      "type": "function"
    }
  ],
  "bytecode": "0x60c0604052600560808190526402e776562760dc1b60a09081526200002891600c919062000136565b5060408051808201909152600580825264173539b7b760d91b60209092019182526200005791600d9162000136565b506063600e553480156200006a57600080fd5b50604051620025aa380380620025aa8339810160408190526200008d91620002a9565b815182908290620000a690600090602085019062000136565b508051620000bc90600190602084019062000136565b50506006805460ff1916905550620000d433620000dc565b505062000350565b600680546001600160a01b03838116610100818102610100600160a81b031985161790945560405193909204169182907f8be0079c531659141344cd1fd0a4f28419497f9722a3daafe3b4186f6b6457e090600090a35050565b828054620001449062000313565b90600052602060002090601f016020900481019282620001685760008555620001b3565b82601f106200018357805160ff1916838001178555620001b3565b82800160010185558215620001b3579182015b82811115620001b357825182559160200191906001019062000196565b50620001c1929150620001c5565b5090565b5b80821115620001c15760008155600101620001c6565b634e487b7160e01b600052604160045260246000fd5b600082601f8301126200020457600080fd5b81516001600160401b0380821115620002215762000221620001dc565b604051601f8301601f19908116603f011681019082821181831017156200024c576200024c620001dc565b816040528381526020925086838588010111156200026957600080fd5b600091505b838210156200028d57858201830151818301840152908201906200026e565b838211156200029f5760008385830101525b9695505050505050565b60008060408385031215620002bd57600080fd5b82516001600160401b0380821115620002d557600080fd5b620002e386838701620001f2565b93506020850151915080821115620002fa57600080fd5b506200030985828601620001f2565b9150509250929050565b600181811c908216806200032857607f821691505b602082108114156200034a57634e487b7160e01b600052602260045260246000fd5b50919050565b61224a80620003606000396000f3fe608060405234801561001057600080fd5b506004361061018e5760003560e01c806370a08231116100de578063a22cb46511610097578063c87b56dd11610071578063c87b56dd14610340578063e0391b0914610353578063e985e9c51461035b578063f2fde38b1461039757600080fd5b8063a22cb46514610312578063b88d4fde14610325578063c66828621461033857600080fd5b806370a08231146102b0578063715018a6146102d15780637b1e175a146102d95780638456cb59146102ec5780638da5cb5b146102f457806395d89b411461030a57600080fd5b8063227212f21161014b57806342842e0e1161012557806342842e0e1461026c57806358ca3f741461027f5780635c975abb146102925780636352211e1461029d57600080fd5b8063227212f21461023c57806323b872dd146102515780633f4ba83a1461026457600080fd5b806301ffc9a71461019357806303b0f38d146101bb57806306fdde03146101d0578063081812fc146101d8578063095ea7b314610203578063176b02bb14610218575b600080fd5b6101a66101a1366004611bde565b6103aa565b60405190151581526020015b60405180910390f35b6101c36103fc565b6040516101b29190611c53565b6101c361048a565b6101eb6101e6366004611c66565b61051c565b6040516001600160a01b0390911681526020016101b2565b610216610211366004611c9b565b610543565b005b61022b610226366004611c66565b61065e565b6040516101b2959493929190611cc5565b6102446107aa565b6040516101b29190611d13565b61021661025f366004611dc5565b610a07565b610216610a38565b61021661027a366004611dc5565b610a4a565b61021661028d366004611ead565b610a65565b60065460ff166101a6565b6101eb6102ab366004611c66565b610ca6565b6102c36102be366004611f11565b610d06565b6040519081526020016101b2565b610216610d8c565b61022b6102e7366004611c66565b610d9e565b610216610dd1565b60065461010090046001600160a01b03166101eb565b6101c3610de1565b610216610320366004611f2c565b610df0565b610216610333366004611f68565b610dff565b6101c3610e37565b6101c361034e366004611c66565b610e44565b610244610eb8565b6101a6610369366004611fe4565b6001600160a01b03918216600090815260056020908152604080832093909416825291909152205460ff1690565b6102166103a5366004611f11565b611066565b60006001600160e01b031982166380ac58cd60e01b14806103db57506001600160e01b03198216635b5e139f60e01b145b806103f657506301ffc9a760e01b6001600160e01b03198316145b92915050565b600c805461040990612017565b80601f016020809104026020016040519081016040528092919081815260200182805461043590612017565b80156104825780601f1061045757610100808354040283529160200191610482565b820191906000526020600020905b81548152906001019060200180831161046557829003601f168201915b505050505081565b60606000805461049990612017565b80601f01602080910402602001604051908101604052809291908181526020018280546104c590612017565b80156105125780601f106104e757610100808354040283529160200191610512565b820191906000526020600020905b8154815290600101906020018083116104f557829003601f168201915b5050505050905090565b6000610527826110df565b506000908152600460205260409020546001600160a01b031690565b600061054e82610ca6565b9050806001600160a01b0316836001600160a01b031614156105c15760405162461bcd60e51b815260206004820152602160248201527f4552433732313a20617070726f76616c20746f2063757272656e74206f776e656044820152603960f91b60648201526084015b60405180910390fd5b336001600160a01b03821614806105dd57506105dd8133610369565b61064f5760405162461bcd60e51b815260206004820152603d60248201527f4552433732313a20617070726f76652063616c6c6572206973206e6f7420746f60448201527f6b656e206f776e6572206f7220617070726f76656420666f7220616c6c00000060648201526084016105b8565b610659838361113e565b505050565b600b6020526000908152604090208054819061067990612017565b80601f01602080910402602001604051908101604052809291908181526020018280546106a590612017565b80156106f25780601f106106c7576101008083540402835291602001916106f2565b820191906000526020600020905b8154815290600101906020018083116106d557829003601f168201915b5050505060018301546002840154600385018054949592946001600160a01b0390921693509061072190612017565b80601f016020809104026020016040519081016040528092919081815260200182805461074d90612017565b801561079a5780601f1061076f5761010080835404028352916020019161079a565b820191906000526020600020905b81548152906001019060200180831161077d57829003601f168201915b5050505050908060040154905085565b600a5460609060009067ffffffffffffffff8111156107cb576107cb611e01565b60405190808252806020026020018201604052801561083757816020015b6108246040518060a00160405280606081526020016000815260200160006001600160a01b0316815260200160608152602001600081525090565b8152602001906001900390816107e95790505b50905060005b600a54811015610a0157600b6000600a838154811061085e5761085e61204c565b906000526020600020015481526020019081526020016000206040518060a001604052908160008201805461089290612017565b80601f01602080910402602001604051908101604052809291908181526020018280546108be90612017565b801561090b5780601f106108e05761010080835404028352916020019161090b565b820191906000526020600020905b8154815290600101906020018083116108ee57829003601f168201915b50505091835250506001820154602082015260028201546001600160a01b0316604082015260038201805460609092019161094590612017565b80601f016020809104026020016040519081016040528092919081815260200182805461097190612017565b80156109be5780601f10610993576101008083540402835291602001916109be565b820191906000526020600020905b8154815290600101906020018083116109a157829003601f168201915b505050505081526020016004820154815250508282815181106109e3576109e361204c565b602002602001018190525080806109f990612062565b91505061083d565b50919050565b610a1133826111ac565b610a2d5760405162461bcd60e51b81526004016105b89061208b565b61065983838361122b565b610a4061138f565b610a486113ef565b565b61065983838360405180602001604052806000815250610dff565b600e546007541115610aaf5760405162461bcd60e51b815260206004820152601360248201527213585e0b881cdd5c1c1b1e481c995858da1959606a1b60448201526064016105b8565b60065460ff1615610af85760405162461bcd60e51b81526020600482015260136024820152726d61696e74656e616e6365206f6e676f696e6760681b60448201526064016105b8565b610b06600780546001019055565b6000610b1160075490565b9050610b1d3382611441565b6000818152600b6020908152604090912083519091610b40918391860190611ab4565b50600181018290556002810180546001600160a01b031916331790558351610b719060038301906020870190611ab4565b50426004820155600a805460018181019092557fc65a7bb8d6351c1cf70c95a316cc6a92839c986682d98bc35f958f4883f9d2a801839055600980549182018155600052815482916005027f6e1540171b6c0c960b71a7020d9f60077f6af931a8bbf590da0223dacf75c7af019081908390610bec90612017565b610bf7929190611b38565b506001828101549082015560028083015490820180546001600160a01b0319166001600160a01b039092169190911790556003808301805491830191610c3c90612017565b610c47929190611b38565b50600491820154910155604051610c5f9085906120d8565b604080519182900382208483524260208401529133917f1696e81de1e0be5d5046e82e97edb45bbcece5b3ca095c4458a7a9edfeb2ec46910160405180910390a350505050565b6000818152600260205260408120546001600160a01b0316806103f65760405162461bcd60e51b8152602060048201526018602482015277115490cdcc8c4e881a5b9d985b1a59081d1bdad95b88125160421b60448201526064016105b8565b60006001600160a01b038216610d705760405162461bcd60e51b815260206004820152602960248201527f4552433732313a2061646472657373207a65726f206973206e6f7420612076616044820152683634b21037bbb732b960b91b60648201526084016105b8565b506001600160a01b031660009081526003602052604090205490565b610d9461138f565b610a48600061145b565b60098181548110610dae57600080fd5b906000526020600020906005020160009150905080600001805461067990612017565b610dd961138f565b610a486114b5565b60606001805461049990612017565b610dfb3383836114f2565b5050565b610e0933836111ac565b610e255760405162461bcd60e51b81526004016105b89061208b565b610e31848484846115c1565b50505050565b600d805461040990612017565b6060610e4f826110df565b6000610e6660408051602081019091526000815290565b90506000815111610e865760405180602001604052806000815250610eb1565b80610e90846115f4565b604051602001610ea19291906120f4565b6040516020818303038152906040525b9392505050565b60606009805480602002602001604051908101604052809291908181526020016000905b8282101561105d57838290600052602060002090600502016040518060a0016040529081600082018054610f0f90612017565b80601f0160208091040260200160405190810160405280929190818152602001828054610f3b90612017565b8015610f885780601f10610f5d57610100808354040283529160200191610f88565b820191906000526020600020905b815481529060010190602001808311610f6b57829003601f168201915b50505091835250506001820154602082015260028201546001600160a01b03166040820152600382018054606090920191610fc290612017565b80601f0160208091040260200160405190810160405280929190818152602001828054610fee90612017565b801561103b5780601f106110105761010080835404028352916020019161103b565b820191906000526020600020905b81548152906001019060200180831161101e57829003601f168201915b5050505050815260200160048201548152505081526020019060010190610edc565b50505050905090565b61106e61138f565b6001600160a01b0381166110d35760405162461bcd60e51b815260206004820152602660248201527f4f776e61626c653a206e6577206f776e657220697320746865207a65726f206160448201526564647265737360d01b60648201526084016105b8565b6110dc8161145b565b50565b6000818152600260205260409020546001600160a01b03166110dc5760405162461bcd60e51b8152602060048201526018602482015277115490cdcc8c4e881a5b9d985b1a59081d1bdad95b88125160421b60448201526064016105b8565b600081815260046020526040902080546001600160a01b0319166001600160a01b038416908117909155819061117382610ca6565b6001600160a01b03167f8c5be1e5ebec7d5bd14f71427d1e84f3dd0314c0f7b2291e5b200ac8c7c3b92560405160405180910390a45050565b6000806111b883610ca6565b9050806001600160a01b0316846001600160a01b031614806111ff57506001600160a01b0380821660009081526005602090815260408083209388168352929052205460ff165b806112235750836001600160a01b03166112188461051c565b6001600160a01b0316145b949350505050565b826001600160a01b031661123e82610ca6565b6001600160a01b0316146112645760405162461bcd60e51b81526004016105b890612123565b6001600160a01b0382166112c65760405162461bcd60e51b8152602060048201526024808201527f4552433732313a207472616e7366657220746f20746865207a65726f206164646044820152637265737360e01b60648201526084016105b8565b826001600160a01b03166112d982610ca6565b6001600160a01b0316146112ff5760405162461bcd60e51b81526004016105b890612123565b600081815260046020908152604080832080546001600160a01b03199081169091556001600160a01b0387811680865260038552838620805460001901905590871680865283862080546001019055868652600290945282852080549092168417909155905184937fddf252ad1be2c89b69c2b068fc378daa952ba7f163c4a11628f55a4df523b3ef91a4505050565b6006546001600160a01b03610100909104163314610a485760405162461bcd60e51b815260206004820181905260248201527f4f776e61626c653a2063616c6c6572206973206e6f7420746865206f776e657260448201526064016105b8565b6113f7611691565b6006805460ff191690557f5db9ee0a495bf2e6ff9c91a7834c1ba4fdd244a5e8aa4e537bd38aeae4b073aa335b6040516001600160a01b03909116815260200160405180910390a1565b610dfb8282604051806020016040528060008152506116da565b600680546001600160a01b03838116610100818102610100600160a81b031985161790945560405193909204169182907f8be0079c531659141344cd1fd0a4f28419497f9722a3daafe3b4186f6b6457e090600090a35050565b6114bd61170d565b6006805460ff191660011790557f62e78cea01bee320cd4e420270b5ea74000d11b0c9f74754ebdbfc544b05a2586114243390565b816001600160a01b0316836001600160a01b031614156115545760405162461bcd60e51b815260206004820152601960248201527f4552433732313a20617070726f766520746f2063616c6c65720000000000000060448201526064016105b8565b6001600160a01b03838116600081815260056020908152604080832094871680845294825291829020805460ff191686151590811790915591519182527f17307eab39ab6107e8899845ad3d59bd9653f200f220920489ca2b5937696c31910160405180910390a3505050565b6115cc84848461122b565b6115d884848484611753565b610e315760405162461bcd60e51b81526004016105b890612168565b6060600061160183611851565b600101905060008167ffffffffffffffff81111561162157611621611e01565b6040519080825280601f01601f19166020018201604052801561164b576020820181803683370190505b5090508181016020015b600019016f181899199a1a9b1b9c1cb0b131b232b360811b600a86061a8153600a850494508461168457611689565b611655565b509392505050565b60065460ff16610a485760405162461bcd60e51b815260206004820152601460248201527314185d5cd8589b194e881b9bdd081c185d5cd95960621b60448201526064016105b8565b6116e48383611929565b6116f16000848484611753565b6106595760405162461bcd60e51b81526004016105b890612168565b60065460ff1615610a485760405162461bcd60e51b815260206004820152601060248201526f14185d5cd8589b194e881c185d5cd95960821b60448201526064016105b8565b60006001600160a01b0384163b1561184657604051630a85bd0160e11b81526001600160a01b0385169063150b7a02906117979033908990889088906004016121ba565b6020604051808303816000875af19250505080156117d2575060408051601f3d908101601f191682019092526117cf918101906121f7565b60015b61182c573d808015611800576040519150601f19603f3d011682016040523d82523d6000602084013e611805565b606091505b5080516118245760405162461bcd60e51b81526004016105b890612168565b805181602001fd5b6001600160e01b031916630a85bd0160e11b149050611223565b506001949350505050565b60008072184f03e93ff9f4daa797ed6e38ed64bf6a1f0160401b83106118905772184f03e93ff9f4daa797ed6e38ed64bf6a1f0160401b830492506040015b6d04ee2d6d415b85acef810000000083106118bc576d04ee2d6d415b85acef8100000000830492506020015b662386f26fc1000083106118da57662386f26fc10000830492506010015b6305f5e10083106118f2576305f5e100830492506008015b612710831061190657612710830492506004015b60648310611918576064830492506002015b600a83106103f65760010192915050565b6001600160a01b03821661197f5760405162461bcd60e51b815260206004820181905260248201527f4552433732313a206d696e7420746f20746865207a65726f206164647265737360448201526064016105b8565b6000818152600260205260409020546001600160a01b0316156119e45760405162461bcd60e51b815260206004820152601c60248201527f4552433732313a20746f6b656e20616c7265616479206d696e7465640000000060448201526064016105b8565b6000818152600260205260409020546001600160a01b031615611a495760405162461bcd60e51b815260206004820152601c60248201527f4552433732313a20746f6b656e20616c7265616479206d696e7465640000000060448201526064016105b8565b6001600160a01b038216600081815260036020908152604080832080546001019055848352600290915280822080546001600160a01b0319168417905551839291907fddf252ad1be2c89b69c2b068fc378daa952ba7f163c4a11628f55a4df523b3ef908290a45050565b828054611ac090612017565b90600052602060002090601f016020900481019282611ae25760008555611b28565b82601f10611afb57805160ff1916838001178555611b28565b82800160010185558215611b28579182015b82811115611b28578251825591602001919060010190611b0d565b50611b34929150611bb3565b5090565b828054611b4490612017565b90600052602060002090601f016020900481019282611b665760008555611b28565b82601f10611b775780548555611b28565b82800160010185558215611b2857600052602060002091601f016020900482015b82811115611b28578254825591600101919060010190611b98565b5b80821115611b345760008155600101611bb4565b6001600160e01b0319811681146110dc57600080fd5b600060208284031215611bf057600080fd5b8135610eb181611bc8565b60005b83811015611c16578181015183820152602001611bfe565b83811115610e315750506000910152565b60008151808452611c3f816020860160208601611bfb565b601f01601f19169290920160200192915050565b602081526000610eb16020830184611c27565b600060208284031215611c7857600080fd5b5035919050565b80356001600160a01b0381168114611c9657600080fd5b919050565b60008060408385031215611cae57600080fd5b611cb783611c7f565b946020939093013593505050565b60a081526000611cd860a0830188611c27565b602083018790526001600160a01b03861660408401528281036060840152611d008186611c27565b9150508260808301529695505050505050565b60006020808301818452808551808352604092508286019150828160051b87010184880160005b83811015611db757603f19898403018552815160a08151818652611d6082870182611c27565b838b0151878c0152898401516001600160a01b03168a880152606080850151888303828a01529193509150611d958382611c27565b6080948501519790940196909652505094870194925090860190600101611d3a565b509098975050505050505050565b600080600060608486031215611dda57600080fd5b611de384611c7f565b9250611df160208501611c7f565b9150604084013590509250925092565b634e487b7160e01b600052604160045260246000fd5b600067ffffffffffffffff80841115611e3257611e32611e01565b604051601f8501601f19908116603f01168101908282118183101715611e5a57611e5a611e01565b81604052809350858152868686011115611e7357600080fd5b858560208301376000602087830101525050509392505050565b600082601f830112611e9e57600080fd5b610eb183833560208501611e17565b60008060408385031215611ec057600080fd5b823567ffffffffffffffff80821115611ed857600080fd5b611ee486838701611e8d565b93506020850135915080821115611efa57600080fd5b50611f0785828601611e8d565b9150509250929050565b600060208284031215611f2357600080fd5b610eb182611c7f565b60008060408385031215611f3f57600080fd5b611f4883611c7f565b915060208301358015158114611f5d57600080fd5b809150509250929050565b60008060008060808587031215611f7e57600080fd5b611f8785611c7f565b9350611f9560208601611c7f565b925060408501359150606085013567ffffffffffffffff811115611fb857600080fd5b8501601f81018713611fc957600080fd5b611fd887823560208401611e17565b91505092959194509250565b60008060408385031215611ff757600080fd5b61200083611c7f565b915061200e60208401611c7f565b90509250929050565b600181811c9082168061202b57607f821691505b60208210811415610a0157634e487b7160e01b600052602260045260246000fd5b634e487b7160e01b600052603260045260246000fd5b600060001982141561208457634e487b7160e01b600052601160045260246000fd5b5060010190565b6020808252602d908201527f4552433732313a2063616c6c6572206973206e6f7420746f6b656e206f776e6560408201526c1c881bdc88185c1c1c9bdd9959609a1b606082015260800190565b600082516120ea818460208701611bfb565b9190910192915050565b60008351612106818460208801611bfb565b83519083019061211a818360208801611bfb565b01949350505050565b60208082526025908201527f4552433732313a207472616e736665722066726f6d20696e636f72726563742060408201526437bbb732b960d91b606082015260800190565b60208082526032908201527f4552433732313a207472616e7366657220746f206e6f6e20455243373231526560408201527131b2b4bb32b91034b6b83632b6b2b73a32b960711b606082015260800190565b6001600160a01b03858116825284166020820152604081018390526080606082018190526000906121ed90830184611c27565b9695505050505050565b60006020828403121561220957600080fd5b8151610eb181611bc856fea264697066735822122085c2d7dca3b744bfac14127f977eed8fd4391fdb7cd5ad3676b8230a9b9bc9fb64736f6c634300080b0033",
  "linkReferences": {},
  "deployedLinkReferences": {}
}